:020000040800F2
:100000000000011059A807086D2800084D73020868
:10001000F9A80708F9A80708F9A8070800000000D0
:100020000000000000000000000000006541000822
:1000300069410008000000006D41000805F000085B
:10004000F9A80708F9A80708F9A80708F9A80708F0
:10005000F9A80708F9A8070829B800082DB800086A
:10006000F9A8070831B8000835B80008512F000872
:10007000652F0008792F00088D2F0008A12F000898
:10008000B52F0008C92F0008F9A80708F9A8070824
:10009000F9A80708F9A80708F9A8070839B8000857
:1000A000FD2D0008252E00084D2E0008E92D000822
:1000B000752E0008892E00089D2E0008F9A8070853
:1000C000F9A80708F9A80708F9A80708F9A8070870
:1000D000F9A80708F1290008FD290008092A0008E5
:1000E0003DB80008F9A8070871410008D92E00089A
:1000F000012F0008292F0008C52E0008DD2F000859
:10010000F9A80708F9A80708B12E0008F9A80708F8
:10011000152A0008212A0008F9A80708F9A80708E5
:10012000F12F0008053000081530000825300008C0
:1001300035300008F9A80708F9A80708F9A8070842
:10014000F9A80708F9A80708F9A80708BD41000899
:1001500045300008593000086D3000082D2A00088D
:10016000F9A80708F9A80708F9A80708F9A80708CF
:10017000F9A80708F9A80708F9A80708F9A80708BF
:08018000F9A80708F9A8070817
:10019000D0E907239A423CBFC1685218D01A704771
:1001A000D0E9092300699A4238BF1218D31A0138DE
:1001B000C01A7047D0E90902101AB0FA80F040095D
:1001C000704700BF0246036A4069D168C05C0133D2
:1001D0008B4228BF00231362704700BF436A8269C5
:1001E000D154436A0169426B01338B4228BF00231B
:1001F0004362D36843F08003D3607047436B188831
:1002000010F0100002D01A889B880120704700BFB0
:10021000436B99891A88890610B504460AD592B2AB
:10022000900607D5E26A002A2AD09888216B80B20E
:100230009047636B99891A88090692B210D5100607
:100240000ED5D4E909128A4215D0A1692069895CCA
:100250000132C9B29980B2FBF0F100FB1122A26217
:10026000998A1A88C90592B204D5D20744BF4FF6BD
:10027000F7721A8010BDDA6822F08002DA60EFE7C8
:100280009B88E2696169DBB28B54E269E168636B68
:100290000132B2FBF1F001FB1022E261CAE700BFBC
:1002A000036942681F2B10B40AD95468A3F1200CCB
:1002B000202101FA0CF1214207D15DF8044B70476F
:1002C0001468202199402142F7D081690024C86830
:1002D0000C7480684C68016821F00101016020689D
:1002E00094F805C00C4C818934F81C4089B221EA8D
:1002F00004011F2B818107D9A3F1200120238B400A
:100300005DF8044BD3607047202101FA03F35DF8D8
:10031000044B9360704700BF9418080882B009220C
:10032000274B8DF80720DA68D00319D4DA68D10694
:1003300040D4DA68D20541D4DA6812F0E00F3BD13C
:10034000DB6813F0020F0CBF092308238DF8073078
:100350009DF80730012B0AD09DF8070002B07047C6
:1003600001238DF807309DF80730012BF4D1144A92
:1003700012E0D368DB0519D4D36813F0E00F17D16E
:10038000D36813F0020F0CBF092308238DF8073040
:100390009DF80730012BDFD1D168C8034FF001036E
:1003A000F4D4D368D906E4D50623EFE70223EDE7BA
:1003B0000723EBE70623D4E70723D2E70223D0E79E
:1003C000003C0240704700BF704700BF704700BF4D
:1003D00001207047034BD3E90003C01AC0F30A00A1
:1003E000704700BF80230020054AD2E900139942DC
:1003F000FDD0D1180133C3F30A03087A5360704764
:1004000080230020064BD3F8080800B97047D3F8C2
:100410000808A0F10500B0FA80F04009704700BF5D
:1004200080230020012380F849307047044BD3E932
:100430000003C01AC0F30A00C0F50060704700BF97
:100440008023002010B5D0F8E83504461B69984792
:10045000032384F81231002010BD00BF08B5042228
:1004600090F81211D0F8E83580F8131180F81221B5
:10047000DB689847002008BD08B5D0F8E435DB6993
:1004800003B19847002008BD08B5D0F8E4351B6AD1
:100490009847002008BD00BF08B5D0F8E4355B6A76
:1004A0009847002008BD00BF70B5037805460E468A
:1004B0001446DBB1013079F04BFB431CDBB2013356
:1004C0005B00DAB223800323327073702C7864B13E
:1004D0002846022300215A1CD2B2F454B15410F819
:1004E000014F0233DBB2002CF5D170BD022213465E
:1004F000E8E700BF10B5074C2068FF2808D0064980
:10050000D1F80C2801F5016100F082F8FF23236087
:10051000002010BD0000002080230020432301485C
:100520000B80704704000020122301480B807047A5
:1005300048000020042301480B8070475C00002025
:1005400010B5044C04480A462146FFF7ADFF20468B
:1005500010BD00BF982B002020BF080810B5044C28
:1005600004480A462146FFF79FFF204610BD00BF02
:10057000982B002030BF080810B5044C04480A46E8
:100580002146FFF791FF204610BD00BF982B0020A9
:1005900038BF080810B5044C04480A462146FFF746
:1005A00083FF204610BD00BF982B002044BF0808E1
:1005B00010B5044C04480A462146FFF775FF204653
:1005C00010BD00BF982B002050BF0808704700BF27
:1005D000704700BF704700BF704700BF704700BF43
:1005E000704700BF704700BF044B00200522C3F8CE
:1005F0000828C3F81809C3F81C0970478023002095
:10060000024B0020C3F80808704700BF8023002079
:10061000212838B50C4625D0222816D0202812D102
:1006200089B1072A0FD1174DD5F81C3913B10968C4
:10063000002098472168A288A379C5F82019A5F859
:10064000242985F82639002038BD0029FBD0022A4C
:10065000F9D10C4BD3F81839002BF4D009880020BD
:100660009847F0E70029EED0072AECD1054BD3F8E4
:100670002019B3F8242993F826392160A280A371A8
:10068000E1E700BF8023002010B4114CD4E9003210
:100690009A1AC2F30A020A44B2F5006F13D871B174
:1006A00001444A1E013810F801CFE118904203F1CD
:1006B000010381F808C0C3F30A03F4D123600020CA
:1006C0005DF8044B704702205DF8044B704700BF93
:1006D000802300201D49D1F87C391A79022A00D0E4
:1006E000704710B41A4C93F9102002EB820204EB0D
:1006F0008202126E1089800708D51289100605D46F
:100700009A6892070BD45DF8044B704700BFD1F88C
:100710007C391A79022AE6D05DF8044B7047D1F88B
:1007200080190C480C4A4FF4FA7404FB01F1A2FB47
:100730000121446889094268121B9142FBD25B691E
:10074000002BE0D01A689B881383DCE7802300200D
:1007500000000020001000E0D34D6210034B93F81E
:100760004C09003818BF0120704700BF80230020CB
:100770000E4BD3F8782942B1106891880269114272
:1007800003D1002283F84C29704793F840290132A5
:10079000D2B2072A83F84029F3D8D3F88429C3F8C2
:1007A0003C29012283F84C29704700BF8023002098
:1007B000034B93F84C09032894BF00200120704795
:1007C0008023002000487047D02C002030B4184B04
:1007D00000209C7B14B11D688D4206D00130082892
:1007E00003F11003F5D130BC7047D2B1114B03EBCC
:1007F00040218A4211D0104B93F8B42112B9012242
:1008000083F8B4210D4B01225A7000F5817003EB7F
:10081000001301229A7130BC7047022CEBD1183BB7
:10082000F3E7064B00F5817003EB00139A71DAE7EA
:10083000D05F0020D04F0020B85F0020B84F0020CC
:1008400030B41D4C002384F8A03004F1180004E0FB
:100850000133082B00F110001ED005688D42F7D13E
:1008600090F80EC0BCF1030FF2D1BAB1134901EBFD
:100870004320824209D094F8B42112B9012284F8AD
:10088000B4210F4901224A7000E0183903F5817341
:1008900001EB031101238B7130BC70470849D4F878
:1008A0009C2003F5817301EB03130132042199713C
:1008B000C4F89C20F0E700BFB85F0020D04F0020B4
:1008C000B84F0020A8B183681BB10E4B07229A7065
:1008D00070470C4A1178D36003294FF0040014BF0D
:1008E0004FF480718021C2E901111361137590707A
:1008F0007047044A02F580510123537081F8B431E6
:10090000704700BFB84F002010B58121044677F032
:10091000CBFE2046012177F0C7FE2046822177F0EA
:10092000C3FEFFF76DFE002010BD00BF034610B4EC
:10093000D9691A69002040F20114A3F84441086003
:10094000D1699C6D21F002014FF0010CD161A3F837
:100950009CC32060D369044923F4003381F88809DB
:100960005DF8044BD36170478023002020230148A9
:100970000B807047B0000020122301480B807047A5
:10098000D0000020042301480B807047E4000020C1
:100990000A4608B5054920B90548FFF785FD034813
:1009A00008BD0448FFF780FD004808BD0C2D00205D
:1009B00060BF080878BF080810B5044C04480A4610
:1009C0002146FFF771FD204610BD00BF0C2D002011
:1009D00090BF08081C48D0F8E837D0F8EC2710B5CD
:1009E0009B184FF01A040C8001D1184810BD174A0B
:1009F000D0F8EA0702F1100411464FF0000E4FEA5A
:100A0000137CB3F1204F34BF0CF1300C0CF1370CD8
:100A100081F802C081F803E002318C424FEA0313EF
:100A2000EDD102F108040021030FB0F1204F34BFD3
:100A3000303337339374D174023294424FEA00104A
:100A4000F2D1024810BD00BF00F0FF1FE8000020F7
:100A500010B5044C04480A462146FFF725FD204600
:100A600010BD00BF0C2D0020A4BF080810B5044C19
:100A700004480A462146FFF717FD204610BD00BF77
:100A80000C2D0020B0BF080810B50E4C0E4BD4F84A
:100A90006C1CB4F8700C088303F58272C4F8D82C6F
:100AA000D3F804319847D4F8D83C002BFBD01B690D
:100AB00098470028F7D0D4F86C3CB4F8702C5A83CF
:100AC000002010BD802300200000002038B5084B16
:100AD000D3F8D83C53B1DB6914460D4698474FF420
:100AE000007302682A600020236038BD1B68FFDEA7
:100AF0008023002008B5064BD3F8D83C23B11B69EE
:100B00009847013840B208BD4FF0FF3008BD00BF24
:100B1000802300200020704743B32DE9F041144C9E
:100B200015460E4603EB020804E0D4F8D83CE3B1C6
:100B30001B699847D4F8D81CB9B100234F681A46EE
:100B400031462846B8470028EFD0D4F8D83C002BCF
:100B5000FBD01B6998470028F7D00135A84506F55A
:100B60000076E7D10020BDE8F081FEE70020704765
:100B7000802300203BB32DE9F041144C15460E466E
:100B800003EB020801E01B699847D4F8D81C51B167
:100B90000023CF681A4631462846B847D4F8D83CD7
:100BA00010B1002BEFD1002313B11B69984710B986
:100BB000D4F8D83CF8E70135454506F50076E4D190
:100BC0000020BDE8F0810020704700BF8023002096
:100BD000002070472DE9F0411F4E80460B4696F8E5
:100BE000DC2C002AFBD19BB343445F1E08F1FF3885
:100BF000D6F8E03CD6F8E42C0133C3F30A039A425A
:100C000016D10EF04BFA04460D460EF047FA001BC3
:100C100061EB0501B0F57A7F71F10001F5D3D6F8EB
:100C2000E03CD6F8E42C0133C3F30A039342E8D046
:100C3000D6F8E02CD6F8E03C18F8011F3244013316
:100C4000C3F30A03B84582F8E81CC6F8E03CCFD1EC
:100C50000020BDE8F08100BF8023002090F84820EC
:100C6000531C0244DBB280F8483082F8341090F80C
:100C7000492052B1132B0CD9002280F8482010B51E
:100C80000B4CD4F808282AB910BD80F84820002B56
:100C9000F5D17047D4F80828052AF5D11946343023
:100CA000D4F88439FFF796FFD4F8843910BD00BF1B
:100CB0008023002010B50A4CD4F8083803B910BDC1
:100CC000D4F80838052BFAD1002A0846D4F884391C
:100CD0001146F4DDFFF77EFFD4F8843910BD00BF64
:100CE0008023002090F848100023A0F8483001B974
:100CF000704710B5084CD4F808381BB1D4F8083840
:100D0000052B00D010BD3430D4F88439FFF762FFD2
:100D1000D4F8843910BD00BF802300202DE9F047AE
:100D2000534E1F4606EB80039C68002C00F09B800E
:100D300004F13E03A36104F59F73E3614FF48073F4
:100D4000C4E904332836236866600546E16094F8F8
:100D50003D00A36391460AF019FE804694F84402D0
:100D600094F83CA0261D002851D194F8450250BBB0
:100D7000D4F840326BBB3A0731D419F0020F49D195
:100D800019F0010F5AD1D4F8483294F9471294F867
:100D900047221B010029DBB20DDB3649881880F899
:100DA00000335009012302F01F02934041F8203024
:100DB0003046BDE8F087304902F00F02114430465A
:100DC0000B76BDE8F08774F0F7FDD4F84032002BC5
:100DD000D1D02A4A116B0B4313633A07CDD50135A5
:100DE000EDB2B8F1000F05D040F2067388F8085054
:100DF000A8F80630FB0694F846222FD417F0200FEF
:100E00000CBF3221122140460AF084FDBBE774F08A
:100E1000D3FDAAE76B1CDBB2B8F1000F05D088F850
:100E2000083040F20653A8F8063094F846224046AF
:100E300002210AF06FFD19F0010FA4D050460AF00C
:100E4000A5FD0135EDB218B140F20663C38005720D
:100E500094F8462202210AF05DFD94E70221404603
:100E60000AF058FD8FE726463046BDE8F08700BF00
:100E70009418080800E100E0FCEC00E000380240B3
:100E80002DE9F047038A8489A4B21C4082B047D080
:100E9000814688464FF0004501F14C0701F13406C8
:100EA000B4FA84F325FA03F2D24391B2A9F81010F0
:100EB00014401B3BB8F1000F5FD0042B2ED8DFE8A5
:100EC00003F052483D320300D8F80C30D9F82CA07A
:100ED00033B19B6823B11FFA8AF108F104009847E7
:100EE000D8F8243033B19B6823B11FFA8AF108F196
:100EF0001C009847D8F83C3033B19B6823B11FFAE7
:100F00008AF108F134009847D8F8543033B19B681F
:100F100023B11FFA8AF108F14C009847002CBFD189
:100F200002B0BDE8F087D8F80C30D9F834105B680F
:100F300008F104009847002CB2D1F1E7D8F824302A
:100F4000D9F838105B6808F11C009847002CA7D12D
:100F5000E6E7D8F83C30D9F83C105B683046984753
:100F6000002C9DD1DCE7D8F85430D9F840105B68EC
:100F700038469847002C93D1D2E7042B07D8DFE8F6
:100F800003F01903140F0A00D9F83C300193019BB8
:100F9000002C85D1C4E7D9F82C300193019BF7E7E9
:100FA000D9F834300193019BF2E7D9F83830019336
:100FB000019BEDE7D9F840300193019BE8E700BFC2
:100FC000F8B5264C94F8DC2C012A034603D0022AFB
:100FD00009D00020F8BD224ED6F8F0538DB984F820
:100FE000DC5C0020F8BD002540F20112C0E9545538
:100FF000C0E95655A0F8442100F5A27177F050FCE5
:10100000EDE7402D20D94027D4F8E41C154AC3F859
:1010100058710A44C3E9542240F20112A3F8442152
:101020000022C3F85C2103F5A271184677F038FC62
:10103000D4F8E43C3B44ED1BC3F30A03C4F8E43C9E
:10104000C6F8F0530020F8BDAAB2402A01D02F46BE
:10105000DAE7022284F8DC2CD5E700BF80230020E9
:10106000783400206830002001EB810138B500EBB6
:10107000C1010F4DB1F88C1304462846FFF704FB5D
:10108000E378C4F8A853012083424FF000024FF0E8
:101090004001C4E9EC12A4F89C0304F567712046F2
:1010A00008BFC4F8AC5377F0FBFB002038BD00BF8D
:1010B0006C380020F8B52A4CD4F834340F2B04D007
:1010C0005A1CC4F834240020F8BD264D95F8DC3CA9
:1010D0000022C4F83424002BF5D1D5F8E42CD5F83F
:1010E000E03C9A42EFD0D5F8E42CD5F8E03C9A42A7
:1010F0002DD8D5F8E06CD5F8E43CF61A402E2BD864
:10110000B3B2402B13BF3746402702230123D5F843
:10111000E42C85F8DC3C144BC0F858711344C0E94A
:10112000543340F20113A0F844310023C0F85C317D
:1011300000F5A27177F0B4FBD5F8E43C3B44F61B14
:10114000C3F30A03C5F8E43CC4F8F063BBE7D5F881
:10115000E46CC6F50066D1E701234027D7E700BF5E
:1011600078340020802300206830002010B5324BF6
:1011700093F8442493F858C4D3F84034044613B188
:1011800052EA0C0231D00123E06984F8463140F282
:101190000112A4F8442102682849002AA8BFC2F31A
:1011A00080739B0301EA124143F020030B4363F376
:1011B0001F42BCF1020F026000D010BDE278204B4C
:1011C000C4F8A8331F200021C4E9EC01012A4FF024
:1011D0000101A4F89C1308BFC4F8AC3304F567718F
:1011E0002046BDE8104077F05BBB012177F022FA82
:1011F0000122E06984F8462140F20113A4F8443149
:10120000016800290A460CDBC1F380730B4C9B0379
:1012100043F0200304EA11410B4363F31F420260D1
:1012200010BD064B03EA114343F4804343F020030F
:1012300063F31F42026010BD78340020DFBFFFFF60
:10124000B03800202DE9F041B0F8CC15D0F8CE35FB
:10125000B0F8D255B0F8D085C0F84051012284B022
:1012600080F8112101F01F02012A044600F2CC5639
:10127000ADF80810C1F3072ECDF80A30ADF80E50C6
:101280004FEA134C51D0022A7746C9B29BB210D014
:10129000002A55D1BEF1090F4BD8DFE81EF08900B6
:1012A000AD004A00C8004A005C01DF004A0013019B
:1012B000330101F0600120295FFA8CF272D0012F16
:1012C00000F0B881032F00F0A181AFBB90F812317C
:1012D000022B00F0E381032B2BD11CF0800F40F098
:1012E000E98102EB820200EBC20393F87623003A15
:1012F00018BF0122C24D02234FF48071C4E94E335E
:1013000084F81131C4F83031A4F81C1105F58D634F
:101310000021C4F83411C4E94A3304F58E71204623
:10132000C5F8682477F05AFA06E090F81231032BDA
:101330000ED0204677F046F9002004B0BDE8F081D9
:1013400001F0800177F076F9002004B0BDE8F0816B
:101350005FFA8CFCBCF1010FEBD8D0F8E43502A9A0
:101360009B689847BDF80E30002BE5D1C4E94A339D
:10137000C4E94C3304214FF4807284F81111A4F8AD
:101380001C2104F58E71204677F028FA636D9D4A82
:101390001A61E278012ACFD15E614FF0802219688C
:1013A0001A60C9E7D0F8E43502A99B689847C3E7FB
:1013B00090F81231023B012BBBD8914BD0F8182189
:1013C0000021C3F8601412B10222C3F860248E4ACF
:1013D00002234FF480700021C4E94C31A4F81C01B1
:1013E000C4E94E33C4E94A2284F8113104F58E7100
:1013F000204677F0F3F99FE790F81221023A012A8C
:1014000097D8012B98D1D0F8E43500259B68C0F817
:10141000185102A9984704224FF48073C4E94A5531
:10142000C4E94C5584F81121A4F81C31A9E7012B1B
:1014300000F03B81022B7FF47FAF5FFA8CF3002B2F
:101440007FF47AAF03694FEA1C22023A5B68032AF1
:1014500000F2BD81DFE802F0B6CED2D01E0A022E25
:10146000ADF8065000F08A81032E00F04E81012E67
:101470007FF45FAFD0F8EC3580781B680DF1060182
:101480009847BDF80630002B3FF456AFBDF80E204C
:10149000002A3FF451AF934228BF13464FF48072A5
:1014A0000221A4F81C210022C4E94A0084F8111189
:1014B000C4E94E33C4E94C3204F58E71204677F00E
:1014C0008DF939E7012D7FF434AF90F81231022BFA
:1014D00000F00881032B7FF42CAF4FF4807200F5ED
:1014E00088730221A0F81C21002280F81111C0E9A4
:1014F0004E55C0E94A33C0E94C5200F58E7177F081
:101500006DF919E7DDB23E4F012D87F859543FF6CA
:1015100010AF90F81231022B00F0D880032B7FF42B
:1015200008AF002D00F0358190F81011012910D07E
:10153000D0F8E4355B68984797F85914D4F8E43547
:1015400084F810111B6820469847D4F8E8359B684A
:10155000984700230AE758EA05027FF4EAAE90F8BC
:10156000121103293FF4E5AE03F07F0580F8145112
:101570000069114663F30A110368194304230160EB
:1015800084F811314FF48073C4E94A22C4E94C2233
:10159000A4F81C3104F58E71204677F01FF9636DB5
:1015A000184A1A61E278012A06D0002D00F0FC806A
:1015B000022384F81231BFE65E614FF08022196881
:1015C0001A60F2E702210E4861F306130022C0F808
:1015D00064340423C4E94A22C4E94C2284F811315A
:1015E00001224FF4807304F58E7184F81621A4F85B
:1015F0001C31C8E60321E6E70521E4E70421E2E720
:101600007834002018000860D838002090F81211B3
:10161000022943D003297FF48CAE23B9510602D0AE
:10162000114677F007F8D4F8E4359B6802A9204604
:1016300098478EE790F8121102292FD003297FF4E2
:1016400078AE002B7FF478AE12F07F0181D01CF0D1
:10165000800F40F0AD8002EB820100EBC10181F808
:10166000763381F87533282381F8742303FB020352
:1016700000EB820193F87723496D0B68023A012A47
:1016800023F400138CBFC3F30072012262F31C73B6
:10169000D4F8E4250B60936802A9C8E753063FF429
:1016A0004BAE114676F0C6FF46E6D0F8E425C0F80A
:1016B0001831F0E702F07F0202EB820200EBC20376
:1016C00093F81E21003A18BF012213E6002D3FF4C3
:1016D000A2AE01210322D0F8E43580F8101180F881
:1016E00012212FE73B4A80F811314FF4807100231B
:1016F000A0F81C11C0E94E55C0E94A22C0E94C537C
:1017000000F58E7177F06AF816E6DBB2052B3FF62E
:1017100010AEDFE803F02B231B130B03D0F8EC35DE
:1017200080789B690DF106019847AAE6D0F8EC3560
:1017300080785B690DF106019847A2E6D0F8EC3598
:1017400080781B690DF1060198479AE6D0F8EC35D0
:101750008078DB680DF10601984792E6D0F8EC3509
:1017600080789B680DF1060198478AE6D0F8EC3541
:1017700080785B680DF10601984782E6D0F8E43581
:1017800080789B6A0DF1060198474670C4F8F00511
:1017900077E60222D0F8E43580F8122180F8105163
:1017A0005B682946984736E6012384F81231C3E581
:1017B000282202FB010080F81C1104EB810180F853
:1017C0001E3180F81DE190F81F21896955E701213C
:1017D000F9E600BFD438002010B5044629B990F8C6
:1017E0001121032A0DD0002010BDD0F8E4359B69EB
:1017F000002BF8D090F81221032AF4D1984700204A
:1018000010BDD0F890230B46D0F87C138A4219D92A
:10181000521AC0F8902394F803C0D0F880038A428B
:1018200028BF0A46BCF1010F92B234D0C4E9E223CA
:1018300004F55D71C4F88003A4F87433204676F093
:10184000CDFFD0E7D0F8E4351B691BB190F8122129
:10185000032A1ED000234FF480720421C4E94A33C6
:10186000C4E94C3384F81111A4F81C2104F58E71DD
:10187000204676F0B3FF636D0D4A1A61E278012AC3
:10188000B1D104F2CC545C614FF0802219681A6027
:10189000A9E79847DEE70844C4E9E22304F55D714F
:1018A000C4F88003A4F87433C4F88403C6E700BF07
:1018B0001800086038B5044649B990F81131022B78
:1018C00011D094F81631012B39D0002038BDD0F852
:1018D000E4355B69002BF8D090F81221032AF4D18B
:1018E0009847002038BDD0F83831D0F824219342F1
:1018F0002FD990F803C09B1ABCF1010F0D46C0F818
:101900003831D0F828116ED09BB2C0F830314FF486
:101910008073C0E94A11C0F8345100F58E71A0F807
:101920001C3176F05BFFC4E9E255C4F8805304F53E
:101930005D71A4F87453204676F050FFC1E73F4B29
:101940002269D3F864145160002384F81631002012
:1019500038BDD0F83C31B3FBF2F502FB15350DBBB9
:101960009A421FD8D0F8402193421BD24FF4807383
:10197000A0F81C3100F58E71C0E94A55C0E94C55FC
:1019800076F02CFFE378C4F84051012BC4E9E2550E
:10199000C4F88053A4F8745308BFC4F8845304F502
:1019A0005D71C8E7D4F8E435DB681BB194F8122107
:1019B000032A15D0E27800230521012A84F81111A9
:1019C000C4E9E233C4F88033A4F8743304F55D71DC
:1019D00024D0204676F002FF636D194A1A6170E741
:1019E00020469847E6E79BB21144C0F830314FF4E7
:1019F0008073C0E94A11C0F8345100F58E71A0F827
:101A00001C3176F0EBFEC4E9E255C4F8805304F5CE
:101A10005D71A4F87453C4F884538CE7C4F884331C
:101A2000204676F0DBFE636D0548186104F2CC5267
:101A30005A614FF080211A68196042E7783400201B
:101A40001800086070B50B7813F060020D4604466C
:101A500024D0202A04D0204676F0B4FD022070BDA8
:101A6000CA8848781AB31B0640D5324E3146FEF775
:101A7000CFFDEB884FF480720221A4F81C210022D4
:101A800084F81111C4E94E33C4E94A66C4E94C3202
:101A900004F58E71204676F0A1FE06E04B780A2B05
:101AA00010D00B2B08D0062BD5D0002070BD022201
:101AB0001144FEF7ADFDF8E78B78C3BB1E4AC2F8B0
:101AC0006C34F2E7022180F811114FF48071A0F814
:101AD0001C111A490123C0E94A11C0E94E33C0E97B
:101AE0004C3200F58E7176F079FEDEE71449154B25
:101AF0000860E078C3F80C28002103F50163012891
:101B00004FF00305C4F88C13A4F87413C4E9E4225D
:101B100084F81151C4F88823C4F8803304F55D714A
:101B200008BFC4F88433204676F058FEBDE776F04F
:101B300049FDBAE7902B002078340020E4380020DB
:101B40000000002080230020002310B51946044621
:101B5000402276F0D9FD802120460023402276F0F5
:101B6000D3FDD4F8E835A078012284F812215B680F
:101B70009847002010BD00BF10B502230446402244
:101B8000812176F0C1FD204602234022012176F01A
:101B9000BBFD204603230822822176F0B5FD104BC1
:101BA0000222A3F84C20FEF71FFDE2780D4BC4F88B
:101BB000A8334021C4F8B013012A4FF000004FF0C1
:101BC0000101C4F8B403A4F89C13204604F567711E
:101BD00008BFC4F8AC3376F063FE002010BD00BF30
:101BE000000000206C38002030B5812183B004460D
:101BF00076F05AFD0121204676F056FD2A4900254F
:101C00000223402281F888592046812176F07CFD0C
:101C1000012102234022204676F076FD234BD3F8A3
:101C2000702483F858541268284690470095009A0B
:101C3000E1681F4B42F010020092009A0A610A69A3
:101C40000092013B02D0009AD006F8D40023019301
:101C5000019B43F020030193019A154B012060F38F
:101C60008A120192019A0A610A690192013B02D02B
:101C7000019A9206F8D4E2780E4BC4F8A8331F20DC
:101C80000021C4E9EC01012A4FF00101A4F89C13E2
:101C9000204604F5677108BFC4F8AC3376F000FE47
:101CA000002003B030BD00BF802300207834002026
:101CB000410D0300B03800202DE9F047294FDFF82F
:101CC000AC90294CDFF8A8A082B000F101080026F2
:101CD00006E09DF80700FF282FD1013646452CD09D
:101CE000D7F87C5995F91030AA6803EB830309EB08
:101CF00083039207186E23D5012300220DF10701FB
:101D000077F0A0FBAB689B07E3D4D7F88029616824
:101D10004FF4FA7303FB02F2AAFB023292096368E2
:101D20005B1A9A42FBD26B69002BD2D09DF8070058
:101D30001A689B881383FF28CFD002B0BDE8F087D4
:101D40006B6913B11A689B885383D7F8802961683F
:101D5000D200AAFB0232920963685B1A9A42FBD254
:101D6000CAE700BF80230020001000E00000002030
:101D7000D34D621070B5044608200D46FFF79CFF56
:101D8000FF2822D0FE2801D0022070BD254E21461A
:101D9000D6F87C092B46002277F0A4FBD6F87C49C4
:101DA000214A94F91030A16803EB830302EB83030B
:101DB0008A07186E0BD500220223114677F042FBEA
:101DC000A3689B0716D5002070BD012070BD636914
:101DD00013B11A689B885383D6F880291349144B92
:101DE0004D68D200A3FB023292094B685B1B9A42FA
:101DF000FBD2E0E7D6F880290C490D4B4FF4FA707E
:101E000000FB02F2A3FB0232486892094B681B1ADE
:101E10009A42FBD26369002BD5D01A689B88138342
:101E2000D1E700BF8023002000000020001000E068
:101E3000D34D621070B52E4C2E4AD4F87C5995F9CA
:101E4000103003EB830302EB8303AA6882B0002007
:101E50004FF6FF519207C4F84809ADF80410186E08
:101E600033D5022301AA002177F0ECFAAB689B0777
:101E700014D50120FFF720FFFF2809D0D4F88439BA
:101E8000C4F83C390020092384F84C3902B070BDF5
:101E90000423022084F84C3902B070BDD4F88029A4
:101EA0001549164B48684FF4FA7606FB02F2A3FB7D
:101EB000023292094B681B1A9A42FBD26B69002BC3
:101EC000D7D01A689B881383D3E76B6913B11A685C
:101ED0009B885383D4F880290749084B4E68D20069
:101EE000A3FB023292094B689B1B9A42FBD2B8E7D4
:101EF0008023002000000020001000E0D34D62107D
:101F000070B540F04002002362F307030A0E62F34B
:101F10000F230A0C82B062F317430A0A62F31F63AD
:101F20009522044600938DF804108DF8052077F073
:101F300021FB08B9002C48D1254D264AD5F87C490B
:101F400094F91030A16803EB830302EB83038A0743
:101F5000186E0CD506236A46002177F073FAA36841
:101F60009B0717D5082002B0BDE87040A4E663695E
:101F700013B11A689B885383D5F880291649174BEB
:101F80004E68D200A3FB023292094B689B1B9A4217
:101F9000FBD2DFE7D5F880290F49104B4FF4FA70D8
:101FA00000FB02F2A3FB0232486892094B681B1A3D
:101FB0009A42FBD26369002BD4D01A689B881383A2
:101FC000082002B0BDE8704076E6FF2002B070BD88
:101FD0008023002000000020001000E0D34D62109C
:101FE0002DE9F041364C82B00546884617461E461C
:101FF00094F84C0904280BD0082807D1D4F84439A8
:10200000AB423FD0FFF716FF0228F1D0012034E0A9
:10201000D4F87C391A79022A36D094F842397BB345
:1020200029461820FFF76CFF002843D194F84C395B
:10203000082B27D0FE238DF80530FF23D4F87C0928
:102040008DF8043001AA0223002177F04BFAD4F86E
:102050007C0980234246002177F044FA01220623BE
:10206000C4F82889C4F82C59C4F83479C4F83869FC
:1020700084F8302984F84C39002002B0BDE8F081A2
:102080006902CEE7FC23D6E79A689207C5D55B695B
:1020900013B11A689B885383D4F880390949DA0050
:1020A000094B4868A3FB023292094B681B1A9A42FB
:1020B000FBD2B2E7FEF70EFBFEF75AFB0320DCE78C
:1020C00080230020001000E0D34D621070B51E4C3C
:1020D00094F84C39042B06460D4609D0082B25D11F
:1020E000D4F8443983421FD0FFF7A4FE02281DD143
:1020F000D4F87C0908F070F800213720FFF700FFC2
:1021000029461720FFF7FCFEC0B994F842397BB985
:1021100071021920FFF7F4FE80B9082384F84C39C6
:10212000C4F84859C4F84469022070BD012070BD4C
:1021300031461920FFF7E4FE0028EED0FEF7CAFA78
:10214000FEF716FB032070BD802300202DE9F0412F
:10215000284C94F84CC9BCF1040F07468846164633
:102160001D4609D0BCF1080F02D00020BDE8F08167
:10217000FFF760FE0228F8D1D4F87C391A79022AD8
:1021800022D094F84239B3B979021120FFF7B8FE92
:10219000B8B90522D4F8843984F84C29C4F82889C0
:1021A000C4F82C79C4F83469C4F83859C4F83C39F7
:1021B0000120BDE8F08139461120FFF7A1FE00287B
:1021C000E7D0FEF787FAD0E79A689207D9D55B691E
:1021D00013B11A689B885383D4F880390649DA0012
:1021E000064B4868A3FB023292094B681B1A9A42BD
:1021F000FBD2C6E780230020001000E0D34D621020
:10220000F0B5D44CD4F87C0985B000285BD094F8A4
:102210004C596B1E082B4ED8DFE813F04101090022
:10222000E1004D00B8007F0067004D005700D4F872
:102230007C0907F0D1FF94F84159A5F10205B5FAE0
:1022400085F56D090021AD073720FFF759FE2946B6
:102250002920FFF755FE0546FEF73CFAADB994F884
:102260004139D4F87C09022B00F0B881D4F87C09FC
:1022700084F8425907F0B0FF00210920FFF740FE23
:10228000002800F06B81FEF725FAD4F87C090221C2
:1022900007F098FD94F84C596E1EF6B2022E0AD83B
:1022A000D4F88439D4F83C299B1AC82B06D9FEF7F8
:1022B0005FFA94F84C59042D00F02081A5F1080034
:1022C000B0FA80F0400905B0F0BD77F053F900286E
:1022D00040F00F81D4F83C39D4F88429FA33934282
:1022E00080F02C81FEF744FA91E777F043F900285B
:1022F000F0D0D4F848390022012B84F8402940F26C
:10230000C281D4F844290825013B0132C4F8483978
:10231000C4F8442984F84C59D0E794F83019D4F81B
:102320002829D4F87C09802302EBC112002177F020
:10233000D9F894F830390133DBB2042B84F8303902
:1023400040F0FC80844AD4F87C090223002177F015
:10235000C9F80123D4F87C090022694677F0C2F855
:102360009DF8003003F01F03052B00F06B81FEF792
:10237000FFF9D4F83459002D3FF449AFD4F8383977
:10238000D4F82C1900220120A84740E7D4F82809E6
:102390004FF40071FFF7EEFC0128054600F0B18014
:1023A000022800F0B580002840F0C880FEF792F9BE
:1023B000D4F8346984F84059042384F84C39002E49
:1023C00000F09C802846D4F83839D4F82829D4F86D
:1023D0002C19B04794F84C596E1EF6B25EE71021E6
:1023E0006846FFF7C7FC00287FF44FAF9DF8002038
:1023F0009DF803109DF80D30BDF80650A4F85A5909
:1024000062F3070061F30F209DF80410BDF801206E
:1024100061F317409DF8051052BA61F31F60A4F8EC
:1024200054291B019DF80E209DF80810C4F8560988
:10243000DBB2DDF8090043EA121303F5FA630D0974
:1024400000BA01F00F0102F00F02A4F8623984F81B
:10245000605984F86119C4F85C0984F86429FEF7AE
:1024600039F994F8423973B9D4F87C0907F0B4FE0D
:102470004FF400711020FFF743FD0546FEF72AF9DF
:10248000002D7FF42FAFD4F87C09022107F09AFCCD
:1024900000220423C4F8482984F84C39B7E6D4F85C
:1024A0007C0907F099FE00210846FFF729FD054643
:1024B000FEF710F9012D40F0BB80D4F87C0900260E
:1024C00084F8416907F088FE40F2AB110820FFF75D
:1024D00017FD05283AD0012800F09880FEF7FAF899
:1024E00094F84159002D00F0C680022384F84C393D
:1024F0008DE6FEF7EFF8042384F84C39012005B08F
:10250000F0BDD4F83C39D4F884296433934215D211
:10251000FEF7E0F8FEF72CF9D4F83459002D3FF41B
:1025200076AE0022D4F83839D4F82C191046A847D2
:102530006DE6FFF77FFC022800F0AA8094F84C5962
:102540006E1EF6B2022E7FF6ABAEB4E684F84159A9
:10255000C4E700BF80230020F01808087548102148
:10256000FFF708FC00287FF48EAE94F8773913F05B
:1025700001033FF488AE94F86829921100F08F802F
:10258000012A7FF480AE94F86F296B4E9200D2B28C
:1025900016210225C5F108038B4228BF0B46C3F163
:1025A00008052A419840C91A40EA02004FF0000588
:1025B00016F8012FEED101308002C4F85009FEF761
:1025C00089F8D4F87C0907F007FE00210A20FFF7FC
:1025D00097FC50BB032384F84C3918E607F0FCFD48
:1025E00029463A20FFF78CFC2A4604230546694613
:1025F000D4F87C0976F076FFFEF76CF8002D7FF4B6
:1026000071AE009D2DBAC5F380752FE60423D4F872
:102610007C093246694676F065FF9DF80330AB2BA6
:1026200004BF022384F8413958E7FEF753F859E60E
:1026300094F84C59D4F87C096E1E0221F6B207F0CA
:10264000C1FB2BE6D4F83469D4F88439C4F83C399A
:10265000072584F84C59002E3FF430AED4F83839B1
:10266000D4F82829D4F82C190120B04794F84C59F3
:102670006E1EF6B212E6D4F87C0984F84C59022199
:1026800007F0A0FB1AE63FF454AF042384F84C395A
:10269000FEF720F894F84C596E1EF6B2FEE594F859
:1026A0006D1994F87159254F01F00F01AD0103FA2E
:1026B00001F1EDB2104603230626C6F108029A4244
:1026C00028BF1A46C2F10806354190409B1A40EADD
:1026D00005004FF0000617F8015FEED194F86EC9BF
:1026E000174F4FEA8C1C02305FFA8CFC0C25062237
:1026F00000E00022C2F10802AA4228BF2A46C2F125
:1027000008064CFA06F69340AD1A17F801CF43EAD3
:102710000603EED101338340C817A3FB011203FB6C
:102720000022490A41EAC251C4F85019FDF7D2FF0C
:1027300047E700BFE82C0020EF2C0020F12C002000
:10274000EE2C0020F8B500220D233521022009F0DF
:102750001DFB2E4DC5F87C09A0B3002107F032FB0C
:102760000CF09CFC04460E460CF098FC001B61EB40
:102770000601B0F57A7F71F10001F5D3D5F87C2917
:10278000536913B119689B880B8392F91030204E5E
:1027900003EB830306EB83030022186E11460A2322
:1027A00076F050FED5F87C793B79022B0DD00122D2
:1027B0000023D5F8841985F84C2985F84039C5F8E7
:1027C0003C19F8BD85F84C09F8BD97F91030114C4B
:1027D00003EB830306EB83010B6E1A89920702D584
:1027E0001B891B06E3D5013CF6D10221384607F0D0
:1027F000E9FA384609F0AEFA95F8403985F84C49BF
:10280000013385F84039C5F87C49F8BD80230020A4
:1028100000000020A18601001049114BD1F888204A
:1028200042F4700210B4C1F888201A680D4C0020E0
:1028300042F001021A6098601A6822F0847222F451
:1028400080321A605C601A68074C22F480221A6099
:10285000D8608C605DF8044B704700BF00ED00E06D
:10286000003802401030002400000008704700BF0C
:102870002DE9F84345697DB90768C7F30D0804469B
:102880000E46B8F1000F0AD0D6F80080FDF746FDDD
:1028900009283BD06FF001052846BDE8F883514B6D
:1028A0009F422AD303F580439F4224D303F58043FC
:1028B0009F427FD34C4B9F427FD903F580339F4289
:1028C0007ED903F500339F427DD903F500339F4243
:1028D0007CD903F500339F4269D903F500339F4249
:1028E00077D903F580239F4276D9B7F1016F76D36C
:1028F00005200CF02FFC4FF00808FDF70FFD09280C
:1029000021D04FF0FF352846BDE8F883374E3369B4
:1029100023F440733361336943F4007333613369E3
:1029200043F001033361C7F80080FDF7F7FC33691A
:10293000092823F001033361ACD1236804332360F9
:102940002846BDE8F883DFF8A490D9F8103023F4C6
:102950004073C9F81030D9F8103043F40073C9F847
:102960001030D9F8103023F0F803C9F81030D9F836
:10297000103043EA080343F00203C9F81030D9F8D5
:10298000103043F48033C9F81030FDF7C7FCD9F894
:10299000103023F00203C9F81030D9F8103009289C
:1029A00023F0F803C9F810303FF46EAFA9E74FF0F9
:1029B0003808A2E74FF010089FE74FF018089CE78F
:1029C0004FF0200899E74FF0280896E74FF03008BD
:1029D00093E74FF0400890E74FF048088DE74FF03D
:1029E00058088AE700400008FFFF0008003C02404A
:1029F0000148FDF70DBC00BF280100200148FDF78C
:102A000007BC00BF740300200148FDF701BC00BFF4
:102A1000C00500200148FDF7FBBB00BF0C080020EB
:102A20000148FDF7F5BB00BF580A00200148FDF73B
:102A3000EFBB00BFA40C00202DE9F0410268214D3E
:102A40000746002455F834309A4209D001340E2C40
:102A5000F8D11D4A0021052005F096FB002013E067
:102A60001A4B03EB8408D8F874647EB1797901EBD2
:102A7000410306EBC30300221820C3E9032200FB35
:102A800001609F601A750430BDE8F08107216C2059
:102A900005F000FC0146C8F8740468B131466C22A8
:102AA0007DF008FDD8F8746405EBC405C6E900564E
:102AB000F6617663F664D9E7054A052005F064FB04
:102AC000CCE700BFF4180808C0BF0808783400201D
:102AD000E8BF0808704700BF38B5D0E9004007EEEE
:102AE000902A0068324A334B2468D3F8EC3E2468BD
:102AF000013990428DB210D002F5806290420CD024
:102B000002F57052904208D002F58062904204D0E3
:102B100002F58062904218BF5B0807EE103AF8EEAB
:102B2000677AB8EE477ADFED246A87EE270A30EE3F
:102B3000260A78F0B3FF1E492388421E8C4292B2C7
:102B40009BB21AD01D498C4217D0B4F1804F1FD0D0
:102B5000A1F580318C421BD001F580618C4217D0E9
:102B600001F580618C4213D015498C4219D1238024
:102B70000123E5622285A38238BD23F45C739BB2F6
:102B800023800023E562228523860123A38238BDAA
:102B900023F45C739BB223800123E5622285A38228
:102BA00038BD08498C42E2D023F440739BB2DEE783
:102BB00000000140000000200AD7233C000401402F
:102BC000001000400014004070B54268937903F093
:102BD000020E13F004033AD175469C469E464FF40C
:102BE000807001235479032C30D8DFE804F08E6222
:102BF00002361468704E228C22F480721204120C79
:102C00002284228C22F4007212042B43120CA58819
:102C100042EA0322A38B23F073031B041B0CB44270
:102C2000ADB243F0600300F09B8006F58066B442CD
:102C300000F09680A580A383E1632284A38B23F018
:102C400008031B041B0C43F00803A38370BD002082
:102C500005464FF0040C0346C4E71268564E148C28
:102C600024F480542404240C1484148C24F400547C
:102C700024042B43240C958844EA0334938B23F4D7
:102C8000E6431B041B0CB242ADB243F4C04375D003
:102C900006F58066B24271D09580938311641484E6
:102CA000938B23F400631B041B0C43F40063938396
:102CB00070BD1468404E228C22F010021204120CD7
:102CC0002284228C22F0200212042B43120CA588AD
:102CD00042EA0312238B23F4E6431B041B0CB44289
:102CE000ADB243F4C04359D006F58066B44255D026
:102CF000A5802383A1632284238B23F400631B0418
:102D00001B0C43F40063238370BD1268148C24F001
:102D100001042404240C1484148C968824F00204E6
:102D200024042B43240C1C43138B234D23F07303E7
:102D30001B041B0CAA42B6B243F0600323D005F576
:102D40008065AA421FD09680138351631484138B2D
:102D500023F008031B041B0C43F00803138370BD0E
:102D600022F4006242EA0E2222F4806292B225F43A
:102D7000405542EA0C2245EA00155BE725F4804500
:102D800045EA801588E726F4407606434FF6F3704F
:102D9000204040EA0E0040EA0C04D4E722F0800212
:102DA00042EA0E1222F0400292B225F4406542EA55
:102DB0000C1245EA80059BE7000001404268537908
:102DC000032B0FD8DFE803F00B0805021068403032
:102DD000704710683C307047106838307047106892
:102DE0003430704700207047024B0348D3F8741406
:102DF000FEF746B8783400200000014010B5064CBC
:102E00000648D4F87414FEF73BF8D4F89414044838
:102E1000BDE81040FEF734B87834002000000140CF
:102E20000040014010B5064C0648D4F87414FEF773
:102E300027F8D4F898140448BDE81040FEF720B8ED
:102E400078340020000001400044014010B5064CD9
:102E50000648D4F87414FEF713F8D4F89C14044808
:102E6000BDE81040FEF70CB87834002000000140A7
:102E700000480140034B4FF08040D3F87814FDF731
:102E8000FFBF00BF78340020024B0348D3F87C1406
:102E9000FDF7F6BF7834002000040040024B0348E1
:102EA000D3F88014FDF7ECBF783400200008004010
:102EB000024B0348D3F88414FDF7E2BF78340020B6
:102EC000000C0040024B0348D3F89014FDF7D8BF24
:102ED000783400200004014010B5064C0648D4F8B0
:102EE0009014FDF7CDFFD4F8A0140448BDE81040BD
:102EF000FDF7C6BF783400200004014000180040F0
:102F000010B5064C0648D4F89014FDF7B9FFD4F874
:102F1000A4140448BDE81040FDF7B2BF7834002087
:102F200000040140001C004010B5064C0648D4F8CF
:102F30009014FDF7A5FFD4F8A8140448BDE810408C
:102F4000FDF79EBF783400200004014000200040BF
:102F50000348D0F8FC3E13B100F56F601847704786
:102F6000000000200348D0F81C3F13B100F5716049
:102F700018477047000000200348D0F83C3F13B1C9
:102F800000F5736018477047000000200348D0F830
:102F90005C3F13B100F575601847704700000020D2
:102FA0000348D0F87C3F13B100F5776018477047AD
:102FB000000000200348D0F89C3F13B100F5796071
:102FC00018477047000000200348D0F8BC3F13B1F9
:102FD00000F57B6018477047000000200348D0F8D8
:102FE000DC3F13B100F57D601847704700000020FA
:102FF0000348D0F8FC3F13B100F57F6018477047D5
:10300000000000200248C3690BB110301847704718
:10301000001000200248C36B0BB1303018477047D6
:10302000001000200248C36D0BB1503018477047A4
:10303000001000200248C36F0BB170301847704772
:10304000001000200348D0F89C300BB19030184796
:10305000704700BF001000200348D0F8BC300BB10F
:10306000B0301847704700BF001000200348D0F868
:10307000DC300BB1D0301847704700BF0010002083
:1030800002683649002310B422F00102212488424C
:103090000260036043608360C3600361446138D0B1
:1030A0002F4B98422ED02F4B98423CD02E4B98421B
:1030B00040D02E4B984232D02D4B984241D02D4BD0
:1030C000984246D02C4B984217D02C4B98423CD07B
:1030D0002B4B984216D02B4B984224D02A4B984227
:1030E00028D02A4B98421AD0294B984229D0294BF4
:1030F00098422ED0284B984208D14FF03D5243F8C9
:10310000AC2C03E04FF4746243F8202C5DF8044BC0
:103110007047224B5DF8044B3D229A607047204A6D
:1031200043F8642CF2E74FF474125DF8044B43F853
:10313000382C70474FF074625DF8044B43F8502C04
:103140007047184A43F87C2CE0E73D2243F8082CEE
:10315000DCE7154A43F8942CD8E700BF1060024022
:1031600028600240406002405860024070600240A7
:1031700088600240A0600240B860024010640240D3
:103180002864024040640240586402407064024077
:1031900088640240A0640240B864024000600240BB
:1031A0003D000020400F002000003D20214A936890
:1031B00003F00C03042B10B43AD0082B1FD01E4B85
:1031C0001C4C0360A1681D4AC1F30311114491F81E
:1031D000D010CB404360A168C1F38221114491F823
:1031E000D01023FA01F18160A1685DF8044BC1F3AE
:1031F00042310A4492F8D020D340C36070475368EC
:10320000516813F4800F536814BF0D4A0A4AC3F380
:10321000881301F03F01B2FBF1F202FB03F3054A10
:103220005268C2F3014201325200B3FBF2F3C7E726
:10323000034BC5E7003802400024F4009418080846
:1032400000127A0070B5446B8668A38923F400539A
:103250001B041B0CA381857990F805C02B0303F494
:103260000051C5F380000CF001032A029B001CF002
:10327000020F4FEA003002F4806218BF43F00803E7
:1032800002431A43238A9BB223F440530B43238205
:10329000A38923F4B05323F00C031B041B0C13432A
:1032A000A381A38A23F440731B041B0C84B0A38264
:1032B0006846FFF77BFF234B9C4205D003F58063F4
:1032C0009C4201D0029B00E0039BA2891E4912048C
:1032D00003EB83034CBF7600B60003EB8303B3FB21
:1032E000F6F3A1FB0302A08952096426000406FB41
:1032F00012334FEA02121CD41B013233A1FB031319
:10330000C3F3431313439BB223812A07A38A0AD52D
:103310009BB243F00803A382A3899BB243F40053FA
:10332000A38104B070BD23F008031B041B0CA3820F
:10333000F2E7DB003233A1FB0313C3F34213134361
:10334000E1E700BF001001401F85EB512DE9F84374
:10335000394C9DF820509DF82490A0420F4690468D
:103360001E4649D0354B98424ED0354B984253D0EB
:10337000344B98422BD0344B984255D0334B984223
:1033800021D14B462A4631460520FDF7C7FC0446AD
:103390000023C4E90B78C4E90733C4E90933657134
:1033A000A66084F806902046FFF74CFFEA07616BA1
:1033B0001AD4AB0713D48B899BB243F400538B818F
:1033C0002046BDE8F88300242046BDE8F8834B463C
:1033D0002A4631460320FDF7A1FC0446D8E7CB6816
:1033E00043F08003CB60E6E74FF6DF730B80CB68DA
:1033F00043F02003CB60DCE74B462A4631460020F1
:10340000FDF78CFC0446C3E74B462A4631460120B3
:10341000FDF784FC0446BBE74B462A4631460220B2
:10342000FDF77CFC0446B3E74B462A4631460420B0
:10343000FDF774FC0446ABE7001001400044004077
:1034400000480040004C0040005000400014014083
:103450008160F7E64171F5E68171F3E62DE9F0430D
:10346000704F07EBC00985B005464FEAC00819F850
:10347000040C08F08BFA064619F8030C08F086FADB
:10348000044619F8020C72F097FA6B1CDBB21EB1FD
:1034900040F60C123372F2801CB1237240F60C23FA
:1034A000E380304604223A2108F034FA0422204610
:1034B0003A2108F02FFA07EB08025B4B52F8084C50
:1034C0009C4200F08E80594B9C4200F09580584BF6
:1034D0009C4200F09C80474417F8013C022B32D0FC
:1034E000032B7CD05349544F012B08BF0F46A688AD
:1034F0006846FFF75BFE26F03F06029B4F4AB3FB90
:10350000F7F13604A2FB0323360C46EA9346A68065
:10351000228822F001021204120C22808AB2C1F326
:103520000B019B0C09B942F001024FF4967101FBAB
:1035300003F34349A1FB03139B0901339BB242F4FC
:10354000004223841FE0A6886846FFF72FFE26F07E
:103550003F06029A394B3604A3FB0213360C46EAA7
:103560009346A680218821F001010904090C2180DD
:1035700034499209A1FB021292099B0C0133042ADF
:10358000238438BF0422A28323882F4A9BB243F0AE
:1035900001032380238823F4816323F002031B04A7
:1035A0001B0C4FF4804143F48063238021812388E6
:1035B00023F080031B041B0C238023889BB202EBA7
:1035C000451243F0010323800121002382F8B05407
:1035D00082F8B11482F8B23405B0BDE8F0831B4F15
:1035E00085E703F5F2331A6A42F400121A621A6A86
:1035F00022F400121A626EE703F5F0331A6A42F4FD
:1036000080021A621A6A22F480021A6263E703F5E2
:10361000EE331A6A42F400021A621A6A22F40002B5
:103620001A6258E7F810002000540040005800408B
:10363000005C0040009F2400804F120083DE1B438B
:10364000D34D6210632D3E0578340020C027090059
:103650002DE9F047924E90F900108046807806EBF5
:10366000C1050138CC0090B055F8081C14282DD89D
:10367000DFE810F04C012001150055005F009E00AE
:10368000A600C301B6017A0084003C020402D701FF
:10369000C000D0002F003700A30195015401888A93
:1036A0000C8B81B27F4841EA0441884300F02081BD
:1036B000D8E90201101A42F2107263EB0101904244
:1036C00071F1000102D3152388F8023010B0BDE873
:1036D000F08798F813000882C8E90223122088F8BE
:1036E0000200888A0C8B80B240EA04406E4C84430E
:1036F00000F0B28000200E900F9001200F910E90EC
:103700000E99002900F017820F9914310F910F992B
:1037100009684905CCD5142388F80230D6E798F813
:10372000110000F0FE000882C8E90223052088F895
:103730000200888A0C8B80B240EA04405B4C8443D0
:1037400000F0A180002000900190012001910090E4
:103750000099002900F0FB81019914310191019930
:1037600009684F05D7D4A3E798F8110040F001008D
:103770000882C8E902230B2088F80200888A0C8B93
:1037800080B240EA04404A4C84436DD0002004904B
:1037900005900120059104900499002900F0D18141
:1037A000059914310591059909684D05B3D47FE752
:1037B00098F813000882C8E90223072088F802005D
:1037C000888A0C8B80B240EA0440374C84435ED038
:1037D0000020029003900120039102900299002999
:1037E00000F0C181039914310391039909684E05D2
:1037F00091D45DE7088820F480600004000C088004
:1038000098F8110000F0FE000882C8E90223102099
:1038100088F80200888A0C8B80B240EA0440234C6E
:10382000844312D000200C900D9001200D910C903B
:103830000C99002900F091810D9914310D910D9989
:10384000096848053FF567AF32E798F81330FF2B5A
:1038500006D198F810301BB1132388F8023035E7F1
:10386000112388F8023031E7D8F81400012800F05D
:103870008F81022800F04382098B0E21C8E90223C0
:1038800088F8021022E7062388F802301EE7D8F8ED
:103890001400002800F06D81082388F8023015E735
:1038A000F8100020010003008400070082000700D8
:1038B00002000300088820F400600004000C088067
:1038C000088880B240F480600880088880B240F4A4
:1038D00080700880032088F80200888A0C8B81B2EF
:1038E000A94841EA04418843C8E902237FF4EEAEC7
:1038F00098F81230002B40F0CE8198F81330FF2B4F
:1039000000F03F82042388F80230DFE60988890549
:103910003FF5CEAE002388F80230D7E6344414F8E1
:10392000040C08F033F8064614F8030C08F02EF8DF
:10393000964AB2F8103501339BB28246A2F8103590
:1039400016B13368B2881A83BAF1000F04D0DAF8DE
:103950000030BAF804201A831121304606F0F2F93B
:103960001121504606F0EEF94FF0090965272EB1F6
:103970003368B28819690A4240F02381013F00F0A0
:103980001D810BF08BFB04460D460BF087FB001BE3
:1039900061EB0501052871F10001F6D3E7E708881E
:1039A00080B240F4007008804FF6FF308882012119
:1039B000C8E9022388F8021088E6D8F81400002825
:1039C00000F06D81D8F8184014F8016B0E820138B0
:1039D0001225C8E90504C8E9022388F8025075E6F3
:1039E000888A0C8B81B2684841EA044188437FF49D
:1039F0005FAE0A2388F8023068E6088880B240F497
:103A000080700880092088F80200888A0C8B81B2B7
:103A10005D4841EA04418843C8E902237FF456AE79
:103A2000E7E7002401250A940B940B910A950A9864
:103A3000002800F047810B9814300B900B98006819
:103A400046077FF535AED8F81400032800F06D81E5
:103A5000022800F24381088820F480600004000CF2
:103A60000880088880B240F400700880098A88F8CD
:103A70001C40C8E9022388F8025027E600200124F0
:103A800008900990099108940898002800F0148182
:103A90000998143009900998006847077FF508AE27
:103AA000EFF31185102080F31288088880B240F46B
:103AB00000700880D8F818000E8A471CC8F81870E3
:103AC000EDB2067085F311880D8AD8F818106FF0E2
:103AD00001004E1CC8F818600D70C8E90223C8F830
:103AE000140088F81C4088F80240EFE5002006909A
:103AF0000790012007910690069C002C00F0E880BA
:103B0000079C14340794079C246864067FF5D0ADA5
:103B10000C8AD8F818104D1CC8F818500C70D8F83A
:103B2000141088F81C000139C8E90223C8F81410E1
:103B300088F80200CAE50F9918310F910F990968AA
:103B4000B6E505991831059105990968B0E501991F
:103B50001831019101990968AAE50D9918310D9163
:103B60000D990968A4E5039918310391039909682F
:103B70009EE5088880B240F4007008800121C8E901
:103B8000022388F80210A1E5010003007834002028
:103B9000088820F480600004000C0880EFF3118492
:103BA000102080F31288088B088880B240F40070DF
:103BB000E4B2088084F311880C215FE616B1336803
:103BC000B2885A830BF06AFA04460D460BF066FA87
:103BD000001B61EB0501052871F10001F6D316B158
:103BE0003368B2881A830BF059FA04460D460BF07D
:103BF00055FA001B61EB0501052871F10001F6D3B0
:103C0000B9F101097FF4B2AE16B13368B2885A83B4
:103C10000BF044FA04460D460BF040FA001B61EB32
:103C20000501052871F10001F6D3BAF1000F04D0A7
:103C3000DAF80030BAF804205A830BF02FFA044661
:103C40000D460BF02BFA001B61EB0501052871F105
:103C50000001F6D316B13368B2881A830BF01EFA4E
:103C600004460D460BF01AFA001B61EB050105280E
:103C700071F10001F6D3BAF1000F04D0DAF8003088
:103C8000BAF804201A8398F90000441C3FF442AEAD
:103C9000FFF7E4FB3EE60F2388F8023016E50888BC
:103CA00080B240F4007008800121C8E9022388F83E
:103CB0001C1088F8021009E5099918310991099931
:103CC0000968F5E40B9918310B910B990968EFE439
:103CD00007991831079107990968E9E4D8F818009D
:103CE000098A441CC8F818400170D8F81410C8F8A4
:103CF00008200139C8F81410C8F80C30E6E4088828
:103D000080B240F400600880EFF31184102080F34B
:103D10001288088B088820F480600004000CE4B24C
:103D2000088084F311880D21A8E5088820F48060BC
:103D30000004000C0880EFF31184102080F3128837
:103D4000D8F818000D8A461CC8F818600570088855
:103D500080B240F40070E4B2088084F31188D8F88F
:103D60001800098A441CC8F818400170D8F81410CB
:103D70000C200239C8E90223C8F8141088F80200A0
:103D8000A4E498F81030002B3FF4BCAD31E600BF3E
:103D900038B5184D9DF814E005EB40144FEA401C6F
:103DA00094F8B10400B938BD490084F8C324C4F8BC
:103DB000C43484F8C1140023049984F8C0E40222B6
:103DC00005F5966584F8C234C4F8C81484F8CC3478
:103DD00084F8B22465440BF061F902460B4628468C
:103DE000FFF736FC94F8B234002BF4D194F8CC04ED
:103DF00038BD00BF7834002038B5184D9DF814E068
:103E000005EB40144FEA401C94F8B10400B938BDEA
:103E100084F8C324C4F8C43401220023490005F502
:103E2000966584F8C22484F8CC34049A84F8C0E4FB
:103E3000022384F8C114C4F8C82484F8B234654459
:103E40000BF02CF902460B462846FFF701FC94F8CC
:103E5000B234002BF4D194F8CC0438BD783400206F
:103E6000F0B589B00023904A02930393136843F49A
:103E70008033136003E0029BB3F5A04F09D01368B1
:103E800003F400330393029B01330293039B002B43
:103E9000F1D0854B1B6813F4003318BF0123039343
:103EA000039B012B01D000BFFDE77F4B7F491A6CBC
:103EB0007F4842F080521A640A6842F440420A6025
:103EC0009A689A609A6842F400429A609A6842F44A
:103ED000A0529A6058601A6842F080721A601A689C
:103EE0009001FCD5734A40F205711160996821F088
:103EF00003019960996841F00201A2F5806299601E
:103F0000936803F00C03082BFAD1936803F00C03B9
:103F1000042B00F0C680082B00F0AB80664A624B91
:103F200066499868664D674E674FC0F303100144B9
:103F3000002491F8E010CA406449E9606449586F70
:103F4000A960596BC6F8EC2E21F080015963596FB6
:103F5000604A614841F080715967196B0A431A63DE
:103F60005A6B5A639A6B9A631A6C5C490A431A64D7
:103F7000596C5B4A0A435A6448F2FF712346224651
:103F8000CDE9004475F028F85648234622464FF6FE
:103F9000FF71CDE9004475F01FF8534823462246CF
:103FA0004FF6FF71CDE9004475F016F84F482346EF
:103FB00022464FF6FF71CDE9004475F00DF84C48EC
:103FC000234622464FF6FF71CDE9004475F004F810
:103FD0004848234622464FF6FF71CDE9004474F06D
:103FE000FBFF4548234622464FF6FF71CDE90044CA
:103FF00074F0F2FF4148234622464FF6FF71CDE9A7
:10400000004474F0E9FF234622464FF6FF713C4816
:10401000CDE9004474F0E0FF04A8FFF7C7F8D5F835
:10402000FC200499D6F8EC3E364842F08072C5F880
:10403000FC20354AC2F8B00F5460106840F001000F
:1040400010604FF47A72B3FBF2F3013BB3F1807F5F
:104050002E4AB1FBF2F2C7F8802908D24FF0E022D5
:10406000F0215361072385F823109461136109B08F
:10407000F0BD5168536852684902C2F388124CBFC0
:1040800023490D4903F03F03B1FBF3F303FB02F2B5
:10409000054B5B68C3F3014301335B00B2FBF3F2F2
:1040A0003DE71B4A3BE700BF00380240007000407C
:1040B00008544007003C02400024F400941808080B
:1040C00000ED00E000000020802300200003FA053E
:1040D00000000008FF91670000000240FFC9FE10C9
:1040E000335707000004024000080240000C024061
:1040F000001002400014024000180240001C024060
:104100000020024055CEACC5001000E040420F0038
:1041100000127A0082B0064B002201920193019BAB
:1041200003EB80030193019B196002B0704700BF4D
:104130005028004010B51C2007F028FC112104462F
:1041400005F000FE4CB12368A2885A83C8200AF00B
:10415000D3FF2368A2881A8310BDBDE81040C82091
:104160000AF0CABF704700BF704700BF704700BF6A
:1041700010B5104C94F81E3523B90F4B4FF4802224
:104180005A6110BD4FF0E022D2F8103D23F0060333
:10419000C2F8103DFEF740FBD4F824359B68DB07DE
:1041A000EBD5D4F82026136823F0030161F307034D
:1041B0001360E2E778340020003C01402DE9F04F25
:1041C000A14CD4F820355A69D5078BB002D50BB075
:1041D000BDE8F08F5A699B6912EA0301F7D0C1F379
:1041E00007430803019300F1DD80019B5D073CD488
:1041F0008807CEB203D5D4F8203502225A610029AF
:10420000C0F244820A05C1F3072500F19581370702
:1042100007D58E4B8E48DB699847D4F820350822A5
:104220005A61F60600F10A82E80600F1BA81A80692
:1042300000F11481019BDA0608D5844B8448DB6ABF
:104240009847D4F820354FF480125A61019B9B06A1
:10425000BDD57E4B7E481B6B9847D4F820354FF474
:1042600000125A610BB0BDE8F08FD4F824359E6976
:10427000DB691E40B6B2002EBAD0754D4FF0000B70
:1042800005F118080F46F00740F18180D4F8241595
:10429000D8F8002008694B6B23FA0BF3DB01DBB283
:1042A00003439068034013F00109D8B200F00B8279
:1042B0004B6B012000FA0BF023EA00034B63012350
:1042C0009360624B62485B695FFA8BF1984794F8A0
:1042D0001735012B00F07C8219F0800F57D0D5E9FB
:1042E0004CC1D5F82431D8F800E0ACEB0102934280
:1042F000DEF8180028BF134680B20333B0EB930FEB
:1043000045D9D4F8243594F81795CDE9026BBA460F
:1043100067469C46B94237D2D5F82431781A98427C
:1043200028BF184600F1030BD5F828314FEA9B0B44
:10433000B9F1000F10D182B203329210D8F8B860F0
:104340000AD04946013153F8047B37608A42F9D1DB
:10435000D5E94C71D5F82831014403448F42C5F8A2
:104360002831C5F83411DEF818300AD195F81C014F
:10437000012202FA00F0DCF8342022EA0002CCF834
:1043800034209BB29B45C5D3DDE9026B57467608C6
:104390000BF1010B05F1280508F104087FF473AF58
:1043A000394625E7D4F824359D69DB691D402D0C7D
:1043B0003FF41BAF04F21458DFF890B0029104F5FB
:1043C000AD6600274FF00109C24608E06D0807F10D
:1043D000010706F1040608F1280800F08E81EA07BB
:1043E000F4D53068D4F82415836849690B40D9B2F4
:1043F000DB0740F16D8194F81735C0F80890012B68
:1044000007D10169D8F87C33C1F312015B1AC8F8EF
:104410008C33DBF81030F9B25046984794F81735D2
:10442000012BD3D1002FD1D194F82536052BCDD136
:10443000D4F86835074919610749596119684FF07F
:1044400080211960C2E700BF78340020F8100020F6
:104450008C39002018000860583F0020D4F82455FB
:10446000D4F82C25AB68C3F34103022B136814BFA7
:104470000021032161F30A0313606B6843F4807326
:1044800006A86B60FEF792FED4F82025079ED3683D
:1044900023F47053D360A86810F0060FC0F34101F5
:1044A00000F039819E499F483144814240F2AC81FD
:1044B0009D48A6F57401A1F51051814240F2A881F2
:1044C0009A499B4831448142C0F0A6819948A6F19F
:1044D0008C71A1F54341814240F2A28196499748EF
:1044E00031448142C0F0A0819549964831448142CF
:1044F000C0F09E819448A6F1B771A1F55851814250
:10450000C0F09E819149924831448142C0F094812B
:10451000904891493044884234BF06200520402508
:10452000012160F38D23D3604FF4005384F81615F6
:10453000A4F8185553617DE600238DF8133094F8E4
:1045400026368DF81330854B85485B6A9847D4F83A
:104550002435D4F82025986894F81E354FF400616E
:104560005161002B3FF453AEC3077FF550AE94F872
:104570002936012B7FF44BAE9DF81330032B7FF4CB
:1045800046AED4F8203677491A6842F001021A6024
:104590001A6842F003021A600B6943F006030B61CC
:1045A00035E6D4F82465D4F820157368002723F085
:1045B000010373600597059B43F020030593059B5A
:1045C00067F38A130593059B0B61674BBC460A6929
:1045D0000592013B02D0059A9206F8D494F815256D
:1045E00052B1624B03EB820EFF2253F8040F82603C
:1045F000D86B73458260F8D10B2363F3070763F32D
:10460000070C4FF0FF33B3614FF00113F361776193
:10461000C6F810C03368564823F4FE63336094F83C
:104620001725D4F86835012A18616DD04FF48053EE
:104630004B614A4B4A481B6A9847F8E5D4F8203545
:104640009A6922F010029A611A6AC2F34340022862
:1046500002F00F0100F09080062812D101EB8101D9
:1046600004EBC101D4F8E465D1F8A008C2F30A1242
:1046700010443268C4F8E02A3268C4F8E42AC1F869
:10468000A0089A6942F010029A61CDE594F81E35AF
:104690003BB1D4F82026136823F0030060F307032E
:1046A0001360D4F824252D4B2D489D6A5368029140
:1046B00023F001035360A847D4F8203502994FF046
:1046C00000425A619EE5010707D5082393605EE624
:1046D0008A0707D50223836078E6C3060FD5102327
:1046E000936054E60B077FF571AEDBF81830504647
:1046F000984733680821996068E6029975E5410694
:104700007AD54023936042E61A4A5A611A684FF0FC
:1047100080221A608AE74FF40075092001E700BF84
:10472000401E1BFF3F420F00DFC810002013FBFE9E
:1047300020D61300FF69180000D3CEFE40771B007F
:10474000C05BB3FEC091210040AC2700C01D6AFED3
:1047500040E13300803C36FEE09C4100F810002030
:104760008C39002000ED00E0410D0300A03900204D
:1047700018000860583F002047F6F070104280D0C3
:10478000C2F30A1201EB810004EBC00002F1030C3A
:104790005FEAAC0CD0F89468D4F8E4E54FEA8108FD
:1047A00018BF002006D00130DEF8007046F8047B08
:1047B0008445F8D1414404EBC101D1F89408104478
:1047C000C1F89408D1F8A0081044C1F8A00858E72F
:1047D000BBF1000F7FF480AD94F82536042B7FF4F5
:1047E0007BADD4F86835184A1A61184A5A611A68BC
:1047F0004FF080221A606FE5830758BF81467FF52E
:104800006BAD02239360C2E5012140250E2088E6AE
:10481000012140250D2084E6012140250C2080E661
:10482000012140250B207CE6012140250A2078E665
:1048300001214025092074E601214025072070E66A
:104840000121402508206CE618000860583F002030
:1048500002784368022A11D00C490269D1F8180283
:1048600010B41840D1F81042D1F80C12931E400A2F
:1048700004FB030008445DF8044B7047034AD2E987
:10488000802102EB410202EB53207047B85F002009
:104890002DE9F04F12F0020A884E83B09B4601D0FA
:1048A00000286FD0D6F80852002D58D14FF0FF3CA9
:1048B000834C844FCDF804C0E046E64600230092C6
:1048C0002268A57B904200F09E80002D40D003F529
:1048D0008179012D07EB09190AD199F80750EA07E8
:1048E00006D415F07E0F03D1ED0900F090809E46AE
:1048F0000133082B04F11004E2D1BCF1000F009A3F
:1049000004DABEF1000FC0F29280F4466D4CD6F886
:10491000983004EB0C1741F2180E013347F80E00E3
:1049200041F21C0E0CF5817547F80E302F01C6F8C8
:104930009830E35104EB051300275F6004EB051387
:104940009B79042B7AD8DFE803F029401940430013
:104950009C460133082B04F11004B1D1CDE7D6E910
:10496000833404FB05339842A0D396F8B43113B9CD
:10497000012386F8B431534B01225A70002003B052
:10498000BDE8F08F96F8B431A6F58054002B59D0CD
:1049900001230220637003B0BDE8F08F12F001071D
:1049A00076D104EB0513D01093F807E0BBF1030FA9
:1049B00060F3C71E83F807E068D94FF6FF735B45C5
:1049C00028BF5B4604EB05108380BAF1000F49D184
:1049D000500705D504EB0510C37943F00103C371FB
:1049E000D30608D504EB0515EB79C3F34502013274
:1049F00062F34603EB71344B012003EB4C230B6055
:104A000003B0BDE8F08F009A05BB9C467EE7A56821
:104A1000019A954238BF984603F1010338BF2A46F0
:104A2000082B019204F110047FF44AAF65E7B8F156
:104A3000000FA8BFC446BFF669AF9FE796F8B43130
:104A4000002BA5D1012386F8B431A1E7D6F89870E0
:104A50001C4C03F581759C462B010137E750C6F8C5
:104A600098706BE7D6F89830D6F89C000133013087
:104A7000C6F89830C6F89C0004EB0C1041F21C06F6
:104A8000835104EB051304209871A1E73B4699E795
:104A90000E4BD3F8D83C002B3FF470AF0A495E6848
:104AA0000B4A01EB4C210023B04700283FF466AFCE
:104AB00004EB05150223AB7160E700BFB85F00206F
:104AC000D05F0020B84F0020D04F0020802300206E
:104AD000CD07000870B5104E3378022B0F4B0BBF7B
:104AE000020AC0F3D412C4B200F07F04D3F800026B
:104AF00082B010440D460023032201A9FFF7C8FE2F
:104B0000012807D13378019A022B0CBF22F81450E8
:104B100042F8245002B070BDB84F0020B85F0020AA
:104B20002DE9F04FDFF820910D4699F800102B6821
:104B3000032985B0164640D0022966D14FEA132AD0
:104B40005FFA83F84FF4807B421E012A24D80124A7
:104B50009E421CD901288CBF00220122394F0192AC
:104B6000D7F878211AB1D7F89411994250D0D7F8D4
:104B7000000200235044092203A9FFF789FE0128FF
:104B800024D0022815D020B12B689E42E8D82E6090
:104B9000032005B0BDE8F08FB8F1000F14D0294B09
:104BA00093F8B42112B9012283F8B421012389F8C2
:104BB0000130022005B0BDE8F08F4FF0800BC3F349
:104BC000D41A03F07F08BFE75C46C1E799F80010EC
:104BD000022916D00329ECD1039B53F8282022F098
:104BE0007042019BD5F800C0B2FA82F252099A4293
:104BF00020D0A0440CEB0403D8452B601DD2022921
:104C0000EAD1039B33F81820EBE74FF4807BD6E71B
:104C1000D7F81012013A02EB41224902B2FBF1F23D
:104C20001344B3FBF4F204FB12320AB123449B1A7F
:104C30002B60AAE76645ACD8A9E70AF1010A4FF054
:104C40000008A2E7B85F0020B84F00202DE9F04F20
:104C5000DFF850910B6899F800C0174609F58052AB
:104C6000BCF1020FD2F8005283B08B46824640F06E
:104C70008180DEB2A6EB030805EB1325B8444FF4A0
:104C800080729044BB4208F1FF38B8FBF2F843D27F
:104C9000A844BCF1030F06EB0704A4EB030414BF04
:104CA0004FF4807280229442A8EB050328BF14467B
:104CB000B6BB944234BF0B220A2201A92846FFF753
:104CC000E7FD012829D199F800C0DBF80000BCF10C
:104CD000020F00F1010325D0A64210D2019906F17E
:104CE0008042013A01EB8202043901EB840142F86F
:104CF000043F8A4203F10103F9D1DBF80000A31B52
:104D00000344BAF1010FCBF8003023D09F4205F1E4
:104D100001054FF00006BCD8012003B0BDE8F08FBC
:104D20000B22CAE7A642EAD2019906F10042013AF3
:104D300001EB4202023901EB440122F8023F8A42B0
:104D400003F10103F9D1A31B0344BAF1010FCBF81E
:104D50000030DBD1BB42D9D1BCF1020F019B18D08E
:104D600004F18044013C4FF0FF3243F82420DBF88B
:104D70000030CBE703F07F06C3F3D412BCF1030F7E
:104D8000A6EB03081544B84414BF4FF48072802288
:104D900077E704F10044013C4FF6FF7223F814203A
:104DA0000120BAE7B84F002030B50446C06983B08F
:104DB00010B9012003B030BD0D460023032201A924
:104DC000FFF766FD0128F5D1B4F92020002A19DB90
:104DD000019B012D4FEA421103EB421203D0022D39
:104DE0001BD1E5205854A368D3612378032B04D149
:104DF0000023137753779377D377636A53831B0C1E
:104E00009382D6E7064A92F8B41109B982F8B40140
:104E1000044B01225A700220CCE7E368E4E700BFAC
:104E2000B85F0020B84F00202DE9F043814683B0E1
:104E30000E4699F83C30042B00F28980DFE803F03D
:104E40002F03704F3F00434DDFF810814FF6F77787
:104E500005F5805418E0BA4260D870F051FD012881
:104E60004FF0000138D1D9F83000FFF733FE0128A8
:104E700032D1019AD4F81412C9F83020531E8B4253
:104E800028BF0B46C4F814322A78D9F83030032AE8
:104E900001A918469AB2DED14345DED93EE0710041
:104EA00001F0FE014846FFF77FFF012843D1D9F802
:104EB0003430002B18BF022089F83C00B9E799F87C
:104EC0002830042B04BF002389F82830D9F8383063
:104ED0000BB148469847012003B0BDE8F0831E4857
:104EE000D9F82C20D0F89431C0F894219B1AD0F82E
:104EF000102202FB03F3D0F8782102EB4322C0F822
:104F00007821D0F87C2102EB4322C0F87C210021DB
:104F100000F5B870FFF748FF01280CD10420CBE75B
:104F2000D9F8342009F130010020FFF78FFE012865
:104F300001D10320C0E70228CED199F82830042BF4
:104F400004BF002389F8283003B0BDE8F0830220B5
:104F5000F3E700BFB84F0020B85F0020F7FFFF0F56
:104F600038B5044694F83430052B58D8DFE803F000
:104F7000372B2319100394F82830082B04BF002383
:104F800084F82830274B012283F8B521022038BD50
:104F900094F82830082B04BF002384F8283001201F
:104FA00038BD00212046FFF7FFFE012837D104203D
:104FB00084F83400D6E7D4E90B01FFF78BFD012814
:104FC0002DD10320F4E7206B4FF0FF31FFF782FD76
:104FD000012824D1E36A002BF3D00220E8E7114D29
:104FE000D5F8082204F1300101200232FFF798FDC4
:104FF000012805D00238C0B2012810D80520D7E713
:10500000E368D5F81012226BC5F8142203EB412394
:10501000C4E90332E36A002BCAD16262C8E7002008
:1050200038BD00BFB85F002070B5044694F8383032
:10503000032B4BD8DFE803F01F170B02002120469B
:10504000FFF7B2FE431EDBB2012B40D970BD626B8D
:1050500004F130010120FFF7F9FD0128F2D103230B
:1050600084F83830E2E71F480021FFF79DFE012851
:10507000E8D10223F4E71C4AE56802F58053127870
:10508000D3F81012D3F89401032A14BF4FF480729E
:10509000802202FB01F105EB4125C4E90350D3F85E
:1050A0007851A5EB4125C3F87851D3F87C51861A85
:1050B000A5EB41210244C3F89421C3F87C11E36AB3
:1050C000C4E90C025BB960620123C9E7022094F8CD
:1050D0002830062B04BF002384F8283070BD2663D7
:1050E000F2E700BF28610020B84F00202DE9F0430F
:1050F0004368C3F308020A44B2F5007F83B0054653
:105100000C4605D223446B60012003B0BDE8F08358
:1051100090F91A20501C0AD0464902F5817201EB21
:105120000212D17921F00101D171FF22AA7695F9FD
:105130001B20511C16D03F4E02F5817206EB021166
:1051400006EB0212C979D079C1F34501012986BF66
:1051500001F1FF3101F03F010021FF2661F346001C
:10516000D071EE762A78022ACCD0324E06F58058DD
:10517000D8F81022B4EB422F4FEA42292BDCD8F8A2
:1051800018721F407A42A24225DCE2194A4528697A
:1051900013D32A7E120729D5D8F89421411C8A42BC
:1051A0001BD300D100214B44DB1BA4EB0909686130
:1051B00009EB070429616B6008460028A4D0327807
:1051C000032A31D080B24FF6F77290429CD81A462B
:1051D00014446C6098E7002097E798F8B42102BB6C
:1051E000012388F8B43173706B68DCE701A970F0B3
:1051F00087FB0128EFD16B68297828696861A4EBE7
:1052000009049944A9EB070301986B6002293C4407
:1052100028611A46D1D1D8F82012B3EB412FD7D349
:1052200072E701227270BEE7034A90423FF66CAF0C
:10523000CDE700BFB84F0020F7FFFF0F2DE9F04783
:10524000044682B094F83830032B00F2AB80DFE8DC
:1052500003F09A170C02236C002084F8280003B195
:105260009847022002B0BDE8F087236C002284F842
:1052700028200BB120469847012002B0BDE8F087F6
:1052800023786668484F022B1CBF474BD3F818326F
:10529000204618BF1E40FFF7DBFAC6F34F26361A2A
:1052A0000546B6B2A7F5805811E0D7F810325A1E5D
:1052B000914557D2FFF71AFF40B997F8B43113B9A7
:1052C000012387F8B431012388F80130013506EB5A
:1052D000050C022201A9002328461FFA8CF9FFF7CA
:1052E000D7FA01284FF400724FF00001BAD10198AB
:1052F0007BF0E0F8E3694FF400712046002BD4D036
:105300006368002BD1D1019B4FF020324FF02E0C5F
:105310004FF0100EC3F80120C3F80520A3F80920B0
:1053200083F800C042F62E6AD4F824C0A3F820A067
:1053300083F80BE0C3F82220C3F8262083F82A2044
:10534000E26BA3F81AC05A872CFA0EFC22FA0EF26E
:1053500083F82BE09A86A3F814C0D7F810325A1EAF
:105360009145A7D3C3EBC353590201F50071204601
:10537000FFF7BCFE28B997F8B4317BB10B4B012283
:105380005A70022007E02046FFF7EAFD012802D00C
:10539000022807D1032084F8380053E7012387F857
:1053A000B431EBE700205DE7B85F0020B84F002084
:1053B0002DE9F041B1F904300F2B82B00E460446BE
:1053C000174632D02046FFF743FA94F91B80B8F114
:1053D000FF3F3BD05C4B41F2180203EB08118A58A7
:1053E000904211D1183303EB4825B38801331BB227
:1053F00005EB4315B38020463D60FFF729FA306086
:10540000012002B0BDE8F08103F5805292F8B4119A
:1054100000295CD001225A702378022B4CD02269DB
:10542000002A60D100233B60EAE74FF40071FFF7E8
:105430005DFE002847D04FF6FF73B3802046FFF78C
:1054400007FA94F91B80B8F1FF3FC3D12378022BF0
:1054500041D02269002AE5D03B4B1B78032B69D051
:1054600093B24FF6F7718B4294BF00230123002BB8
:10547000D6D138B9354B93F8B421002A4DD0324BF0
:1054800001225A700023112201A9FFF701FA012815
:1054900010D1019D2E4BEB1A48BF03F2FF13B3F559
:1054A000805F4FEA63222DD24FFA82F884F81B8086
:1054B000002D9AD12378B0E7244A6368D2F82022DD
:1054C000B3EB422FAED2002002B0BDE8F081012143
:1054D00082F8B4119EE71D4BD3F820226368B3EB2A
:1054E000422FC6D39EE7184B1B78032B19D093B2DB
:1054F0004FF6F772934294BF00230123002B91D102
:105500000020E1E7114B93F8B42112B9012283F88E
:10551000B4210D4B01225A70C8E7012283F8B4214F
:10552000ADE70C4B9A4294BF00230123002B7FF47C
:1055300079AFE5E7074B9A4294BF00230123002B84
:105540007FF46EAF95E700BFB84F0020B85F002032
:10555000D04F0020F7FFFF0F2DE9F043044689B03C
:1055600094F83030042B11D8DFE803F050136103B6
:105570005A00237E9A0640F1FA80E0690023112246
:1055800004A9FFF785F9012800F0F18009B0BDE812
:10559000F083C64D03AE04F11C0732463946284657
:1055A000FFF706FF012800F0FD800228EED1C04978
:1055B00001F5805595F9D2315A1C0AD003F5817353
:1055C00001EB0313DA7922F00102DA71FF2385F887
:1055D000D23195F9D3315F1C16D003F5817301EBFD
:1055E000031201EB0313D279D979C2F34502012AE0
:1055F00086BF02F1FF3202F03F02002262F3460151
:10560000FF22D97185F8D321042306E0A74870F062
:1056100083FA4FF6FF720123228484F830309FE72B
:105620000020E36A207009B0BDE8F0431847A14D9F
:1056300095F8E031002BA9D104F11C0703AE05F564
:10564000DC78324639464046FFF7B2FE012840F08A
:105650001A81039B002B00F0F4801A78E52A01D010
:10566000002AEED19449591A48BF01F2FF11B1F551
:10567000805F4FEA612280F050818D4912018F488E
:105680000244907B04280CD0D5F898000130C5F86E
:105690009800506004209073D5F89C200132C5F822
:1056A0009C2095F9D221561C0AD002F5817201EB9B
:1056B0000212FF2085F8D201D07920F00100D071CC
:1056C00095F9D321501C18D002F5817001EB00121E
:1056D00001EB0011D279C2F34502012A4FF0FF001D
:1056E00088BF02F1FF3285F8D301C8798CBF02F080
:1056F0003F02002262F34600C871184620220021B2
:105700007AF0D8FED4F83120D4F835104160026028
:10571000B4F8392094F83B1081720281627EC27223
:10572000019005A803F070F8019B002800F0DE80CE
:105730009DF816009DF817209DF8191042EA4012B6
:10574000BDF81400A0F2BC7042EA40229DF81A0095
:10575000490141EA50019DF8180041EAC02192B286
:1057600088B2D9811A821A83D882032355E720464A
:1057700070F0D2F92369002B00F08A80237E03F0B9
:10578000F70213F00403227640F09A80122A00F008
:10579000B080E36A0022204684F8282009B0BDE8E2
:1057A000F0431847DDF80C80B8F1000F00F0C1801D
:1057B00098F80030002B00F0BC8098F80B9019F09E
:1057C000080F7FF4EAAE0B2204F1310140467AF073
:1057D00083F900287FF4E1AE637E89EA0303D906EA
:1057E00040F1E680324901F5805595F9D2315A1CD5
:1057F0000AD003F5817301EB0313FF2285F8D22150
:10580000DA7960F30002DA7195F9D321571C3FF47D
:10581000FBAE02F5817201EB021301EB0212DB79A0
:10582000D179C3F34503012B86BF03F1FF3303F0A6
:105830003F03002363F34601FF23D17185F8D33181
:10584000E2E695F8B831022B4FF009023FF4DCAEE6
:1058500095F8E031002B7FF4D7AEC5E97D3385F8AC
:10586000F03185F8EC31D5F8CC31C5F8E4310F488A
:10587000D5F8143285F8E021C5F8E831FFF7DEFCF1
:1058800001283FF4DEAE02287FF480AE0423C4E694
:10589000237E1B077FF57DAF064B93F89821002AE6
:1058A0007FF474AE072283F8982172E770610020BC
:1058B000B84F0020B85F0020D04F0020D05F0020FC
:1058C000A568E66A002384F8283029462046FFF7B9
:1058D0000DFC002866D194F82830002B7FF456AEDA
:1058E0000223C4E90B6584F828304FE644F2817244
:1058F00038E7626AE16AA163042084F82800204640
:10590000C4E90B22C4E9023384F83C306363636268
:1059100009B0BDE8F04370F0FFB895F8B42112B9B2
:10592000012285F8B421454901224A706FF00F0227
:10593000A5E6424901F5805595F9D2315F1C0AD0A0
:1059400003F5817301EB0313DA7922F00102DA71B6
:10595000FF2385F8D23195F9D3315E1C16D003F5BB
:10596000817301EB031201EB0313D279D979C2F3EE
:105970004502012A86BF02F1FF3202F03F020022F7
:1059800062F34601FF22D97185F8D321237ED80620
:105990007FF53AAE2A4870F0BFF84FF6FF72022347
:1059A00022843AE6002E3FF4F1AD204633463AE633
:1059B000B8F81420B8F81A30224D43EA0243636263
:1059C000D5F81022D8F81C30A3605202B3FBF2F1D4
:1059D00002FB113109B113445B1AE36084F819909A
:1059E00095F9D23115495E1C0AD003F5817301EB9C
:1059F0000313DA7922F00102DA71FF2385F8D2313C
:105A000095F9D321501C3FF4B0AE02F5817201EB41
:105A1000021301EB0212DB79D179C3F34503012BA9
:105A200086BF03F1FF3303F03F03002363F3460116
:105A3000FF23D17185F8D33197E600BFB84F00201E
:105A400070610020B85F002070B50378017E023BD2
:105A5000012B044602D911F0060F68D18D0643D4FC
:105A600094F91A30581C0AD0374A03F5817302EBB7
:105A70000313FF20DA7922F00102DA71A07694F99B
:105A80001B305A1C16D0304803F5817200EB02130C
:105A900000EB0210DB79C279C3F34503012B86BF0B
:105AA00003F1FF3303F03F03002363F34602FF23B8
:105AB000C271E3760B070ED5244B93F89821072A81
:105AC00006D093F8B421002A38D01F4A0121517022
:105AD000002283F89821E26A0023237084F828309A
